:060000000A128A1100291A
:100200000F2124210313831205182B218518312176
:1002100085193721051A3D2105194D210429831619
:1002200003178801890183160313860105148514B9
:1002300005158801851505168701831203138601AC
:100240008501870188010800031383160F138F1699
:100250000F160F14080005182B29860A061A8601A6
:100260000800851831298603861B4321080085195B
:100270003729880A081A88010800051A3D298803C9
:10028000881B4821080006128612061386130800F0
:1002900008128812081388130800051903010608BC
:1002A00008078700871A87010800C830A1005B2172
:1002B000A10B57290800A530A000A00B5D2908005C
:04400E00C430FF3F7C
:00000001FF
